{
  "address": "0x163c68cA978eD9A85c7364EEFCf20d7698adA2A3",
  "abi": [
    {
      "inputs": [],
      "stateMutability": "nonpayable",
      "type": "constructor"
    },
    {
      "inputs": [
        {
          "internalType": "address",
          "name": "sender",
          "type": "address"
        },
        {
          "internalType": "uint256",
          "name": "tokenId",
          "type": "uint256"
        },
        {
          "internalType": "address",
          "name": "owner",
          "type": "address"
        }
      ],
      "name": "ERC721IncorrectOwner",
      "type": "error"
    },
    {
      "inputs": [
        {
          "internalType": "address",
          "name": "operator",
          "type": "address"
        },
        {
          "internalType": "uint256",
          "name": "tokenId",
          "type": "uint256"
        }
      ],
      "name": "ERC721InsufficientApproval",
      "type": "error"
    },
    {
      "inputs": [
        {
          "internalType": "address",
          "name": "approver",
          "type": "address"
        }
      ],
      "name": "ERC721InvalidApprover",
      "type": "error"
    },
    {
      "inputs": [
        {
          "internalType": "address",
          "name": "operator",
          "type": "address"
        }
      ],
      "name": "ERC721InvalidOperator",
      "type": "error"
    },
    {
      "inputs": [
        {
          "internalType": "address",
          "name": "owner",
          "type": "address"
        }
      ],
      "name": "ERC721InvalidOwner",
      "type": "error"
    },
    {
      "inputs": [
        {
          "internalType": "address",
          "name": "receiver",
          "type": "address"
        }
      ],
      "name": "ERC721InvalidReceiver",
      "type": "error"
    },
    {
      "inputs": [
        {
          "internalType": "address",
          "name": "sender",
          "type": "address"
        }
      ],
      "name": "ERC721InvalidSender",
      "type": "error"
    },
    {
      "inputs": [
        {
          "internalType": "uint256",
          "name": "tokenId",
          "type": "uint256"
        }
      ],
      "name": "ERC721NonexistentToken",
      "type": "error"
    },
    {
      "anonymous": false,
      "inputs": [
        {
          "indexed": true,
          "internalType": "address",
          "name": "owner",
          "type": "address"
        },
        {
          "indexed": true,
          "internalType": "address",
          "name": "approved",
          "type": "address"
        },
        {
          "indexed": true,
          "internalType": "uint256",
          "name": "tokenId",
          "type": "uint256"
        }
      ],
      "name": "Approval",
      "type": "event"
    },
    {
      "anonymous": false,
      "inputs": [
        {
          "indexed": true,
          "internalType": "address",
          "name": "owner",
          "type": "address"
        },
        {
          "indexed": true,
          "internalType": "address",
          "name": "operator",
          "type": "address"
        },
        {
          "indexed": false,
          "internalType": "bool",
          "name": "approved",
          "type": "bool"
        }
      ],
      "name": "ApprovalForAll",
      "type": "event"
    },
    {
      "anonymous": false,
      "inputs": [
        {
          "indexed": false,
          "internalType": "uint256",
          "name": "_fromTokenId",
          "type": "uint256"
        },
        {
          "indexed": false,
          "internalType": "uint256",
          "name": "_toTokenId",
          "type": "uint256"
        }
      ],
      "name": "BatchMetadataUpdate",
      "type": "event"
    },
    {
      "anonymous": false,
      "inputs": [
        {
          "indexed": false,
          "internalType": "uint256",
          "name": "_tokenId",
          "type": "uint256"
        }
      ],
      "name": "MetadataUpdate",
      "type": "event"
    },
    {
      "anonymous": false,
      "inputs": [
        {
          "indexed": true,
          "internalType": "uint256",
          "name": "tokenId",
          "type": "uint256"
        },
        {
          "indexed": false,
          "internalType": "address",
          "name": "owner",
          "type": "address"
        },
        {
          "indexed": false,
          "internalType": "address",
          "name": "seller",
          "type": "address"
        },
        {
          "indexed": false,
          "internalType": "uint256",
          "name": "price",
          "type": "uint256"
        },
        {
          "indexed": false,
          "internalType": "bool",
          "name": "currentlyListed",
          "type": "bool"
        }
      ],
      "name": "TokenListedSuccess",
      "type": "event"
    },
    {
      "anonymous": false,
      "inputs": [
        {
          "indexed": true,
          "internalType": "address",
          "name": "from",
          "type": "address"
        },
        {
          "indexed": true,
          "internalType": "address",
          "name": "to",
          "type": "address"
        },
        {
          "indexed": true,
          "internalType": "uint256",
          "name": "tokenId",
          "type": "uint256"
        }
      ],
      "name": "Transfer",
      "type": "event"
    },
    {
      "inputs": [
        {
          "internalType": "address",
          "name": "to",
          "type": "address"
        },
        {
          "internalType": "uint256",
          "name": "tokenId",
          "type": "uint256"
        }
      ],
      "name": "approve",
      "outputs": [],
      "stateMutability": "nonpayable",
      "type": "function"
    },
    {
      "inputs": [
        {
          "internalType": "address",
          "name": "owner",
          "type": "address"
        }
      ],
      "name": "balanceOf",
      "outputs": [
        {
          "internalType": "uint256",
          "name": "",
          "type": "uint256"
        }
      ],
      "stateMutability": "view",
      "type": "function"
    },
    {
      "inputs": [
        {
          "internalType": "string",
          "name": "tokenURI",
          "type": "string"
        },
        {
          "internalType": "uint256",
          "name": "price",
          "type": "uint256"
        }
      ],
      "name": "createToken",
      "outputs": [
        {
          "internalType": "uint256",
          "name": "",
          "type": "uint256"
        }
      ],
      "stateMutability": "payable",
      "type": "function"
    },
    {
      "inputs": [
        {
          "internalType": "uint256",
          "name": "tokenId",
          "type": "uint256"
        }
      ],
      "name": "executeSale",
      "outputs": [],
      "stateMutability": "payable",
      "type": "function"
    },
    {
      "inputs": [],
      "name": "getAllNFTs",
      "outputs": [
        {
          "components": [
            {
              "internalType": "uint256",
              "name": "tokenId",
              "type": "uint256"
            },
            {
              "internalType": "address payable",
              "name": "owner",
              "type": "address"
            },
            {
              "internalType": "address payable",
              "name": "seller",
              "type": "address"
            },
            {
              "internalType": "uint256",
              "name": "price",
              "type": "uint256"
            },
            {
              "internalType": "bool",
              "name": "currentlyListed",
              "type": "bool"
            }
          ],
          "internalType": "struct NFTMarketplace.ListedToken[]",
          "name": "",
          "type": "tuple[]"
        }
      ],
      "stateMutability": "view",
      "type": "function"
    },
    {
      "inputs": [
        {
          "internalType": "uint256",
          "name": "tokenId",
          "type": "uint256"
        }
      ],
      "name": "getApproved",
      "outputs": [
        {
          "internalType": "address",
          "name": "",
          "type": "address"
        }
      ],
      "stateMutability": "view",
      "type": "function"
    },
    {
      "inputs": [],
      "name": "getCurrentToken",
      "outputs": [
        {
          "internalType": "uint256",
          "name": "",
          "type": "uint256"
        }
      ],
      "stateMutability": "view",
      "type": "function"
    },
    {
      "inputs": [],
      "name": "getLatestIdToListedToken",
      "outputs": [
        {
          "components": [
            {
              "internalType": "uint256",
              "name": "tokenId",
              "type": "uint256"
            },
            {
              "internalType": "address payable",
              "name": "owner",
              "type": "address"
            },
            {
              "internalType": "address payable",
              "name": "seller",
              "type": "address"
            },
            {
              "internalType": "uint256",
              "name": "price",
              "type": "uint256"
            },
            {
              "internalType": "bool",
              "name": "currentlyListed",
              "type": "bool"
            }
          ],
          "internalType": "struct NFTMarketplace.ListedToken",
          "name": "",
          "type": "tuple"
        }
      ],
      "stateMutability": "view",
      "type": "function"
    },
    {
      "inputs": [],
      "name": "getListPrice",
      "outputs": [
        {
          "internalType": "uint256",
          "name": "",
          "type": "uint256"
        }
      ],
      "stateMutability": "view",
      "type": "function"
    },
    {
      "inputs": [
        {
          "internalType": "uint256",
          "name": "tokenId",
          "type": "uint256"
        }
      ],
      "name": "getListedTokenForId",
      "outputs": [
        {
          "components": [
            {
              "internalType": "uint256",
              "name": "tokenId",
              "type": "uint256"
            },
            {
              "internalType": "address payable",
              "name": "owner",
              "type": "address"
            },
            {
              "internalType": "address payable",
              "name": "seller",
              "type": "address"
            },
            {
              "internalType": "uint256",
              "name": "price",
              "type": "uint256"
            },
            {
              "internalType": "bool",
              "name": "currentlyListed",
              "type": "bool"
            }
          ],
          "internalType": "struct NFTMarketplace.ListedToken",
          "name": "",
          "type": "tuple"
        }
      ],
      "stateMutability": "view",
      "type": "function"
    },
    {
      "inputs": [],
      "name": "getMyNFTs",
      "outputs": [
        {
          "components": [
            {
              "internalType": "uint256",
              "name": "tokenId",
              "type": "uint256"
            },
            {
              "internalType": "address payable",
              "name": "owner",
              "type": "address"
            },
            {
              "internalType": "address payable",
              "name": "seller",
              "type": "address"
            },
            {
              "internalType": "uint256",
              "name": "price",
              "type": "uint256"
            },
            {
              "internalType": "bool",
              "name": "currentlyListed",
              "type": "bool"
            }
          ],
          "internalType": "struct NFTMarketplace.ListedToken[]",
          "name": "",
          "type": "tuple[]"
        }
      ],
      "stateMutability": "view",
      "type": "function"
    },
    {
      "inputs": [
        {
          "internalType": "address",
          "name": "owner",
          "type": "address"
        },
        {
          "internalType": "address",
          "name": "operator",
          "type": "address"
        }
      ],
      "name": "isApprovedForAll",
      "outputs": [
        {
          "internalType": "bool",
          "name": "",
          "type": "bool"
        }
      ],
      "stateMutability": "view",
      "type": "function"
    },
    {
      "inputs": [],
      "name": "name",
      "outputs": [
        {
          "internalType": "string",
          "name": "",
          "type": "string"
        }
      ],
      "stateMutability": "view",
      "type": "function"
    },
    {
      "inputs": [
        {
          "internalType": "uint256",
          "name": "tokenId",
          "type": "uint256"
        }
      ],
      "name": "ownerOf",
      "outputs": [
        {
          "internalType": "address",
          "name": "",
          "type": "address"
        }
      ],
      "stateMutability": "view",
      "type": "function"
    },
    {
      "inputs": [
        {
          "internalType": "address",
          "name": "from",
          "type": "address"
        },
        {
          "internalType": "address",
          "name": "to",
          "type": "address"
        },
        {
          "internalType": "uint256",
          "name": "tokenId",
          "type": "uint256"
        }
      ],
      "name": "safeTransferFrom",
      "outputs": [],
      "stateMutability": "nonpayable",
      "type": "function"
    },
    {
      "inputs": [
        {
          "internalType": "address",
          "name": "from",
          "type": "address"
        },
        {
          "internalType": "address",
          "name": "to",
          "type": "address"
        },
        {
          "internalType": "uint256",
          "name": "tokenId",
          "type": "uint256"
        },
        {
          "internalType": "bytes",
          "name": "data",
          "type": "bytes"
        }
      ],
      "name": "safeTransferFrom",
      "outputs": [],
      "stateMutability": "nonpayable",
      "type": "function"
    },
    {
      "inputs": [
        {
          "internalType": "address",
          "name": "operator",
          "type": "address"
        },
        {
          "internalType": "bool",
          "name": "approved",
          "type": "bool"
        }
      ],
      "name": "setApprovalForAll",
      "outputs": [],
      "stateMutability": "nonpayable",
      "type": "function"
    },
    {
      "inputs": [
        {
          "internalType": "bytes4",
          "name": "interfaceId",
          "type": "bytes4"
        }
      ],
      "name": "supportsInterface",
      "outputs": [
        {
          "internalType": "bool",
          "name": "",
          "type": "bool"
        }
      ],
      "stateMutability": "view",
      "type": "function"
    },
    {
      "inputs": [],
      "name": "symbol",
      "outputs": [
        {
          "internalType": "string",
          "name": "",
          "type": "string"
        }
      ],
      "stateMutability": "view",
      "type": "function"
    },
    {
      "inputs": [
        {
          "internalType": "uint256",
          "name": "tokenId",
          "type": "uint256"
        }
      ],
      "name": "tokenURI",
      "outputs": [
        {
          "internalType": "string",
          "name": "",
          "type": "string"
        }
      ],
      "stateMutability": "view",
      "type": "function"
    },
    {
      "inputs": [
        {
          "internalType": "address",
          "name": "from",
          "type": "address"
        },
        {
          "internalType": "address",
          "name": "to",
          "type": "address"
        },
        {
          "internalType": "uint256",
          "name": "tokenId",
          "type": "uint256"
        }
      ],
      "name": "transferFrom",
      "outputs": [],
      "stateMutability": "nonpayable",
      "type": "function"
    },
    {
      "inputs": [
        {
          "internalType": "uint256",
          "name": "_listPrice",
          "type": "uint256"
        }
      ],
      "name": "updateListPrice",
      "outputs": [],
      "stateMutability": "payable",
      "type": "function"
    }
  ],
  "transactionHash": "0x5934e9e897543a1ba65d4e803b37b989ecd6153ca95b154c8fb61030578f81a3",
  "args": [],
  "numDeployments": 2,
  "solcInputHash": "840be6d3e41202ed667bd8f8eef45b3d",
  "bytecode": "0x608060405266038d7ea4c68000600a553480156200001c57600080fd5b506040518060400160405280601381526020017f4e594e59434e46544d61726b657470616c636500000000000000000000000000815250604051806040016040528060088152602001671396539650d3919560c21b815250816000908162000085919062000154565b50600162000094828262000154565b5050600980546001600160a01b031916331790555062000220565b634e487b7160e01b600052604160045260246000fd5b600181811c90821680620000da57607f821691505b602082108103620000fb57634e487b7160e01b600052602260045260246000fd5b50919050565b601f8211156200014f57600081815260208120601f850160051c810160208610156200012a5750805b601f850160051c820191505b818110156200014b5782815560010162000136565b5050505b505050565b81516001600160401b03811115620001705762000170620000af565b6200018881620001818454620000c5565b8462000101565b602080601f831160018114620001c05760008415620001a75750858301515b600019600386901b1c1916600185901b1785556200014b565b600085815260208120601f198616915b82811015620001f157888601518255948401946001909101908401620001d0565b5085821015620002105787850151600019600388901b60f8161c191681555b5050505050600190811b01905550565b611e0480620002306000396000f3fe6080604052600436106101355760003560e01c80638e264590116100ab578063c322579c1161006f578063c322579c14610354578063c87b56dd14610367578063d1a88ae514610387578063e0391b091461039c578063e985e9c5146103b1578063ef2d1746146103d157600080fd5b80638e264590146102bf57806395d89b41146102ec5780639b1225c414610301578063a22cb46514610314578063b88d4fde1461033457600080fd5b806342842e0e116100fd57806342842e0e1461020b578063629cb2e41461022b5780636352211e1461024d57806368f1945f1461026d57806370a082311461028c57806372b3b620146102ac57600080fd5b806301ffc9a71461013a57806306fdde031461016f578063081812fc14610191578063095ea7b3146101c957806323b872dd146101eb575b600080fd5b34801561014657600080fd5b5061015a610155366004611803565b6103e6565b60405190151581526020015b60405180910390f35b34801561017b57600080fd5b50610184610411565b6040516101669190611870565b34801561019d57600080fd5b506101b16101ac366004611883565b6104a3565b6040516001600160a01b039091168152602001610166565b3480156101d557600080fd5b506101e96101e43660046118b8565b6104cc565b005b3480156101f757600080fd5b506101e96102063660046118e2565b6104db565b34801561021757600080fd5b506101e96102263660046118e2565b61056b565b34801561023757600080fd5b5061024061058b565b604051610166919061195e565b34801561025957600080fd5b506101b1610268366004611883565b6107aa565b34801561027957600080fd5b50600a545b604051908152602001610166565b34801561029857600080fd5b5061027e6102a73660046119ac565b6107b5565b61027e6102ba366004611a53565b6107fd565b3480156102cb57600080fd5b506102df6102da366004611883565b61083f565b6040516101669190611aac565b3480156102f857600080fd5b506101846108a9565b6101e961030f366004611883565b6108b8565b34801561032057600080fd5b506101e961032f366004611aba565b610a26565b34801561034057600080fd5b506101e961034f366004611af6565b610a31565b6101e9610362366004611883565b610a48565b34801561037357600080fd5b50610184610382366004611883565b610ab3565b34801561039357600080fd5b506102df610bc4565b3480156103a857600080fd5b50610240610c31565b3480156103bd57600080fd5b5061015a6103cc366004611b72565b610d53565b3480156103dd57600080fd5b5060075461027e565b60006001600160e01b03198216632483248360e11b148061040b575061040b82610d81565b92915050565b60606000805461042090611ba5565b80601f016020809104026020016040519081016040528092919081815260200182805461044c90611ba5565b80156104995780601f1061046e57610100808354040283529160200191610499565b820191906000526020600020905b81548152906001019060200180831161047c57829003601f168201915b5050505050905090565b60006104ae82610dd1565b506000828152600460205260409020546001600160a01b031661040b565b6104d7828233610e0a565b5050565b6001600160a01b03821661050a57604051633250574960e11b8152600060048201526024015b60405180910390fd5b6000610517838333610e17565b9050836001600160a01b0316816001600160a01b031614610565576040516364283d7b60e01b81526001600160a01b0380861660048301526024820184905282166044820152606401610501565b50505050565b61058683838360405180602001604052806000815250610a31565b505050565b600754606090600080805b838110156106265733600b60006105ae846001611bf5565b81526020810191909152604001600020600101546001600160a01b03161480610601575033600b60006105e2846001611bf5565b81526020810191909152604001600020600201546001600160a01b0316145b1561061457610611600184611bf5565b92505b8061061e81611c08565b915050610596565b5060008267ffffffffffffffff811115610642576106426119c7565b60405190808252806020026020018201604052801561067b57816020015b6106686117bc565b8152602001906001900390816106605790505b50905060005b848110156107a15733600b6000610699846001611bf5565b81526020810191909152604001600020600101546001600160a01b031614806106ec575033600b60006106cd846001611bf5565b81526020810191909152604001600020600201546001600160a01b0316145b1561078f5760006106fe826001611bf5565b6000818152600b6020908152604091829020825160a0810184528154815260018201546001600160a01b039081169382019390935260028201549092169282019290925260038201546060820152600482015460ff16151560808201528551929350909185908790811061077457610774611c21565b602090810291909101015261078a600186611bf5565b945050505b8061079981611c08565b915050610681565b50949350505050565b600061040b82610dd1565b60006001600160a01b0382166107e1576040516322718ad960e21b815260006004820152602401610501565b506001600160a01b031660009081526003602052604090205490565b60006001600760008282546108129190611bf5565b90915550506007546108243382610f10565b61082e8185610f2a565b6108388184610f7a565b9392505050565b6108476117bc565b506000908152600b6020908152604091829020825160a0810184528154815260018201546001600160a01b03908116938201939093526002820154909216928201929092526003820154606082015260049091015460ff161515608082015290565b60606001805461042090611ba5565b6000818152600b6020526040902060038101546002909101546001600160a01b0316348214610951576040805162461bcd60e51b81526020600482015260248101919091527f506c65617365207375626d6974207468652061736b696e67207072696365206960448201527f6e206f7264657220746f20636f6d706c657465207468652070757263686173656064820152608401610501565b6000838152600b6020526040812060048101805460ff19166001908117909155600290910180546001600160a01b031916331790556008805491929091610999908490611bf5565b909155506109aa905030338561111c565b6109b430846104cc565b600954600a546040516001600160a01b039092169181156108fc0291906000818181858888f193505050501580156109f0573d6000803e3d6000fd5b506040516001600160a01b038216903480156108fc02916000818181858888f19350505050158015610565573d6000803e3d6000fd5b6104d73383836111cc565b610a3c8484846104db565b6105658484848461126b565b6009546001600160a01b03163314610aae5760405162461bcd60e51b815260206004820152602360248201527f4f6e6c79206f776e65722063616e20757064617465206c697374696e6720707260448201526269636560e81b6064820152608401610501565b600a55565b6060610abe82610dd1565b5060008281526006602052604081208054610ad890611ba5565b80601f0160208091040260200160405190810160405280929190818152602001828054610b0490611ba5565b8015610b515780601f10610b2657610100808354040283529160200191610b51565b820191906000526020600020905b815481529060010190602001808311610b3457829003601f168201915b505050505090506000610b6f60408051602081019091526000815290565b90508051600003610b81575092915050565b815115610bb3578082604051602001610b9b929190611c37565b60405160208183030381529060405292505050919050565b610bbc84611394565b949350505050565b610bcc6117bc565b506007546000908152600b6020908152604091829020825160a0810184528154815260018201546001600160a01b03908116938201939093526002820154909216928201929092526003820154606082015260049091015460ff161515608082015290565b60075460609060008167ffffffffffffffff811115610c5257610c526119c7565b604051908082528060200260200182016040528015610c8b57816020015b610c786117bc565b815260200190600190039081610c705790505b5090506000805b83811015610d4a576000610ca7826001611bf5565b6000818152600b6020908152604091829020825160a0810184528154815260018201546001600160a01b039081169382019390935260028201549092169282019290925260038201546060820152600482015460ff161515608082015286519293509091869086908110610d1d57610d1d611c21565b6020908102919091010152610d33600185611bf5565b935050508080610d4290611c08565b915050610c92565b50909392505050565b6001600160a01b03918216600090815260056020908152604080832093909416825291909152205460ff1690565b60006001600160e01b031982166380ac58cd60e01b1480610db257506001600160e01b03198216635b5e139f60e01b145b8061040b57506301ffc9a760e01b6001600160e01b031983161461040b565b6000818152600260205260408120546001600160a01b03168061040b57604051637e27328960e01b815260048101849052602401610501565b6105868383836001611408565b6000828152600260205260408120546001600160a01b0390811690831615610e4457610e4481848661150e565b6001600160a01b03811615610e8257610e61600085600080611408565b6001600160a01b038116600090815260036020526040902080546000190190555b6001600160a01b03851615610eb1576001600160a01b0385166000908152600360205260409020805460010190555b60008481526002602052604080822080546001600160a01b0319166001600160a01b0389811691821790925591518793918516917fddf252ad1be2c89b69c2b068fc378daa952ba7f163c4a11628f55a4df523b3ef91a4949350505050565b6104d7828260405180602001604052806000815250611572565b6000828152600660205260409020610f428282611cb4565b506040518281527ff8e1a15aba9398e019f0b49df1a4fde98ee17ae345cb5f6b5e2c27f5033e8ce79060200160405180910390a15050565b600a543414610fd75760405162461bcd60e51b815260206004820152602360248201527f486f706566756c6c792073656e64696e672074686520636f727265637420707260448201526269636560e81b6064820152608401610501565b600081116110325760405162461bcd60e51b815260206004820152602260248201527f4d616b652073757265207468652070726963652069736e2774206e6567617469604482015261766560f01b6064820152608401610501565b6040805160a081018252838152306020808301828152338486018181526060860188815260016080880181815260008c8152600b9097529890952096518755925193860180546001600160a01b039586166001600160a01b03199182161790915590516002870180549190951691161790925551600384015592516004909201805492151560ff19909316929092179091556110cf91908461111c565b604080513081523360208201529081018290526001606082015282907f9339409317fd01fabff48b703019016f49159bacc801ae872d2ca637d226e4c09060800160405180910390a25050565b6001600160a01b03821661114657604051633250574960e11b815260006004820152602401610501565b600061115483836000610e17565b90506001600160a01b03811661118057604051637e27328960e01b815260048101839052602401610501565b836001600160a01b0316816001600160a01b031614610565576040516364283d7b60e01b81526001600160a01b0380861660048301526024820184905282166044820152606401610501565b6001600160a01b0382166111fe57604051630b61174360e31b81526001600160a01b0383166004820152602401610501565b6001600160a01b03838116600081815260056020908152604080832094871680845294825291829020805460ff191686151590811790915591519182527f17307eab39ab6107e8899845ad3d59bd9653f200f220920489ca2b5937696c31910160405180910390a3505050565b6001600160a01b0383163b1561056557604051630a85bd0160e11b81526001600160a01b0384169063150b7a02906112ad903390889087908790600401611d74565b6020604051808303816000875af19250505080156112e8575060408051601f3d908101601f191682019092526112e591810190611db1565b60015b611351573d808015611316576040519150601f19603f3d011682016040523d82523d6000602084013e61131b565b606091505b50805160000361134957604051633250574960e11b81526001600160a01b0385166004820152602401610501565b805181602001fd5b6001600160e01b03198116630a85bd0160e11b1461138d57604051633250574960e11b81526001600160a01b0385166004820152602401610501565b5050505050565b606061139f82610dd1565b5060006113b760408051602081019091526000815290565b905060008151116113d75760405180602001604052806000815250610838565b806113e184611589565b6040516020016113f2929190611c37565b6040516020818303038152906040529392505050565b808061141c57506001600160a01b03821615155b156114de57600061142c84610dd1565b90506001600160a01b038316158015906114585750826001600160a01b0316816001600160a01b031614155b801561146b57506114698184610d53565b155b156114945760405163a9fbf51f60e01b81526001600160a01b0384166004820152602401610501565b81156114dc5783856001600160a01b0316826001600160a01b03167f8c5be1e5ebec7d5bd14f71427d1e84f3dd0314c0f7b2291e5b200ac8c7c3b92560405160405180910390a45b505b5050600090815260046020526040902080546001600160a01b0319166001600160a01b0392909216919091179055565b61151983838361161c565b610586576001600160a01b03831661154757604051637e27328960e01b815260048101829052602401610501565b60405163177e802f60e01b81526001600160a01b038316600482015260248101829052604401610501565b61157c838361167f565b610586600084848461126b565b60606000611596836116e4565b600101905060008167ffffffffffffffff8111156115b6576115b66119c7565b6040519080825280601f01601f1916602001820160405280156115e0576020820181803683370190505b5090508181016020015b600019016f181899199a1a9b1b9c1cb0b131b232b360811b600a86061a8153600a85049450846115ea57509392505050565b60006001600160a01b03831615801590610bbc5750826001600160a01b0316846001600160a01b0316148061165657506116568484610d53565b80610bbc5750506000908152600460205260409020546001600160a01b03908116911614919050565b6001600160a01b0382166116a957604051633250574960e11b815260006004820152602401610501565b60006116b783836000610e17565b90506001600160a01b03811615610586576040516339e3563760e11b815260006004820152602401610501565b60008072184f03e93ff9f4daa797ed6e38ed64bf6a1f0160401b83106117235772184f03e93ff9f4daa797ed6e38ed64bf6a1f0160401b830492506040015b6d04ee2d6d415b85acef8100000000831061174f576d04ee2d6d415b85acef8100000000830492506020015b662386f26fc10000831061176d57662386f26fc10000830492506010015b6305f5e1008310611785576305f5e100830492506008015b612710831061179957612710830492506004015b606483106117ab576064830492506002015b600a831061040b5760010192915050565b6040805160a08101825260008082526020820181905291810182905260608101829052608081019190915290565b6001600160e01b03198116811461180057600080fd5b50565b60006020828403121561181557600080fd5b8135610838816117ea565b60005b8381101561183b578181015183820152602001611823565b50506000910152565b6000815180845261185c816020860160208601611820565b601f01601f19169290920160200192915050565b6020815260006108386020830184611844565b60006020828403121561189557600080fd5b5035919050565b80356001600160a01b03811681146118b357600080fd5b919050565b600080604083850312156118cb57600080fd5b6118d48361189c565b946020939093013593505050565b6000806000606084860312156118f757600080fd5b6119008461189c565b925061190e6020850161189c565b9150604084013590509250925092565b805182526020808201516001600160a01b039081169184019190915260408083015190911690830152606080820151908301526080908101511515910152565b6020808252825182820181905260009190848201906040850190845b818110156119a05761198d83855161191e565b9284019260a0929092019160010161197a565b50909695505050505050565b6000602082840312156119be57600080fd5b6108388261189c565b634e487b7160e01b600052604160045260246000fd5b600067ffffffffffffffff808411156119f8576119f86119c7565b604051601f8501601f19908116603f01168101908282118183101715611a2057611a206119c7565b81604052809350858152868686011115611a3957600080fd5b858560208301376000602087830101525050509392505050565b60008060408385031215611a6657600080fd5b823567ffffffffffffffff811115611a7d57600080fd5b8301601f81018513611a8e57600080fd5b611a9d858235602084016119dd565b95602094909401359450505050565b60a0810161040b828461191e565b60008060408385031215611acd57600080fd5b611ad68361189c565b915060208301358015158114611aeb57600080fd5b809150509250929050565b60008060008060808587031215611b0c57600080fd5b611b158561189c565b9350611b236020860161189c565b925060408501359150606085013567ffffffffffffffff811115611b4657600080fd5b8501601f81018713611b5757600080fd5b611b66878235602084016119dd565b91505092959194509250565b60008060408385031215611b8557600080fd5b611b8e8361189c565b9150611b9c6020840161189c565b90509250929050565b600181811c90821680611bb957607f821691505b602082108103611bd957634e487b7160e01b600052602260045260246000fd5b50919050565b634e487b7160e01b600052601160045260246000fd5b8082018082111561040b5761040b611bdf565b600060018201611c1a57611c1a611bdf565b5060010190565b634e487b7160e01b600052603260045260246000fd5b60008351611c49818460208801611820565b835190830190611c5d818360208801611820565b01949350505050565b601f82111561058657600081815260208120601f850160051c81016020861015611c8d5750805b601f850160051c820191505b81811015611cac57828155600101611c99565b505050505050565b815167ffffffffffffffff811115611cce57611cce6119c7565b611ce281611cdc8454611ba5565b84611c66565b602080601f831160018114611d175760008415611cff5750858301515b600019600386901b1c1916600185901b178555611cac565b600085815260208120601f198616915b82811015611d4657888601518255948401946001909101908401611d27565b5085821015611d645787850151600019600388901b60f8161c191681555b5050505050600190811b01905550565b6001600160a01b0385811682528416602082015260408101839052608060608201819052600090611da790830184611844565b9695505050505050565b600060208284031215611dc357600080fd5b8151610838816117ea56fea26469706673582212205db88c993cd86b021c5b6e4c2bd4ce0a0cba5b878c0a4e2e56deea307525d34164736f6c63430008140033",
  "devdoc": {
    "errors": {
      "ERC721IncorrectOwner(address,uint256,address)": [
        {
          "details": "Indicates an error related to the ownership over a particular token. Used in transfers.",
          "params": {
            "owner": "Address of the current owner of a token.",
            "sender": "Address whose tokens are being transferred.",
            "tokenId": "Identifier number of a token."
          }
        }
      ],
      "ERC721InsufficientApproval(address,uint256)": [
        {
          "details": "Indicates a failure with the `operator`s approval. Used in transfers.",
          "params": {
            "operator": "Address that may be allowed to operate on tokens without being their owner.",
            "tokenId": "Identifier number of a token."
          }
        }
      ],
      "ERC721InvalidApprover(address)": [
        {
          "details": "Indicates a failure with the `approver` of a token to be approved. Used in approvals.",
          "params": {
            "approver": "Address initiating an approval operation."
          }
        }
      ],
      "ERC721InvalidOperator(address)": [
        {
          "details": "Indicates a failure with the `operator` to be approved. Used in approvals.",
          "params": {
            "operator": "Address that may be allowed to operate on tokens without being their owner."
          }
        }
      ],
      "ERC721InvalidOwner(address)": [
        {
          "details": "Indicates that an address can't be an owner. For example, `address(0)` is a forbidden owner in EIP-20. Used in balance queries.",
          "params": {
            "owner": "Address of the current owner of a token."
          }
        }
      ],
      "ERC721InvalidReceiver(address)": [
        {
          "details": "Indicates a failure with the token `receiver`. Used in transfers.",
          "params": {
            "receiver": "Address to which tokens are being transferred."
          }
        }
      ],
      "ERC721InvalidSender(address)": [
        {
          "details": "Indicates a failure with the token `sender`. Used in transfers.",
          "params": {
            "sender": "Address whose tokens are being transferred."
          }
        }
      ],
      "ERC721NonexistentToken(uint256)": [
        {
          "details": "Indicates a `tokenId` whose `owner` is the zero address.",
          "params": {
            "tokenId": "Identifier number of a token."
          }
        }
      ]
    },
    "events": {
      "Approval(address,address,uint256)": {
        "details": "Emitted when `owner` enables `approved` to manage the `tokenId` token."
      },
      "ApprovalForAll(address,address,bool)": {
        "details": "Emitted when `owner` enables or disables (`approved`) `operator` to manage all of its assets."
      },
      "BatchMetadataUpdate(uint256,uint256)": {
        "details": "This event emits when the metadata of a range of tokens is changed. So that the third-party platforms such as NFT market could timely update the images and related attributes of the NFTs."
      },
      "MetadataUpdate(uint256)": {
        "details": "This event emits when the metadata of a token is changed. So that the third-party platforms such as NFT market could timely update the images and related attributes of the NFT."
      },
      "Transfer(address,address,uint256)": {
        "details": "Emitted when `tokenId` token is transferred from `from` to `to`."
      }
    },
    "kind": "dev",
    "methods": {
      "approve(address,uint256)": {
        "details": "See {IERC721-approve}."
      },
      "balanceOf(address)": {
        "details": "See {IERC721-balanceOf}."
      },
      "getApproved(uint256)": {
        "details": "See {IERC721-getApproved}."
      },
      "isApprovedForAll(address,address)": {
        "details": "See {IERC721-isApprovedForAll}."
      },
      "name()": {
        "details": "See {IERC721Metadata-name}."
      },
      "ownerOf(uint256)": {
        "details": "See {IERC721-ownerOf}."
      },
      "safeTransferFrom(address,address,uint256)": {
        "details": "See {IERC721-safeTransferFrom}."
      },
      "safeTransferFrom(address,address,uint256,bytes)": {
        "details": "See {IERC721-safeTransferFrom}."
      },
      "setApprovalForAll(address,bool)": {
        "details": "See {IERC721-setApprovalForAll}."
      },
      "supportsInterface(bytes4)": {
        "details": "See {IERC165-supportsInterface}"
      },
      "symbol()": {
        "details": "See {IERC721Metadata-symbol}."
      },
      "tokenURI(uint256)": {
        "details": "See {IERC721Metadata-tokenURI}."
      },
      "transferFrom(address,address,uint256)": {
        "details": "See {IERC721-transferFrom}."
      }
    },
    "version": 1
  },
  "userdoc": {
    "kind": "user",
    "methods": {},
    "version": 1
  },
  "storageLayout": {
    "storage": [
      {
        "astId": 201,
        "contract": "contracts/NFTMarketplace.sol:NFTMarketplace",
        "label": "_name",
        "offset": 0,
        "slot": "0",
        "type": "t_string_storage"
      },
      {
        "astId": 203,
        "contract": "contracts/NFTMarketplace.sol:NFTMarketplace",
        "label": "_symbol",
        "offset": 0,
        "slot": "1",
        "type": "t_string_storage"
      },
      {
        "astId": 207,
        "contract": "contracts/NFTMarketplace.sol:NFTMarketplace",
        "label": "_owners",
        "offset": 0,
        "slot": "2",
        "type": "t_mapping(t_uint256,t_address)"
      },
      {
        "astId": 211,
        "contract": "contracts/NFTMarketplace.sol:NFTMarketplace",
        "label": "_balances",
        "offset": 0,
        "slot": "3",
        "type": "t_mapping(t_address,t_uint256)"
      },
      {
        "astId": 215,
        "contract": "contracts/NFTMarketplace.sol:NFTMarketplace",
        "label": "_tokenApprovals",
        "offset": 0,
        "slot": "4",
        "type": "t_mapping(t_uint256,t_address)"
      },
      {
        "astId": 221,
        "contract": "contracts/NFTMarketplace.sol:NFTMarketplace",
        "label": "_operatorApprovals",
        "offset": 0,
        "slot": "5",
        "type": "t_mapping(t_address,t_mapping(t_address,t_bool))"
      },
      {
        "astId": 1340,
        "contract": "contracts/NFTMarketplace.sol:NFTMarketplace",
        "label": "_tokenURIs",
        "offset": 0,
        "slot": "6",
        "type": "t_mapping(t_uint256,t_string_storage)"
      },
      {
        "astId": 2955,
        "contract": "contracts/NFTMarketplace.sol:NFTMarketplace",
        "label": "_tokenIds",
        "offset": 0,
        "slot": "7",
        "type": "t_uint256"
      },
      {
        "astId": 2957,
        "contract": "contracts/NFTMarketplace.sol:NFTMarketplace",
        "label": "_itemsSold",
        "offset": 0,
        "slot": "8",
        "type": "t_uint256"
      },
      {
        "astId": 2959,
        "contract": "contracts/NFTMarketplace.sol:NFTMarketplace",
        "label": "owner",
        "offset": 0,
        "slot": "9",
        "type": "t_address_payable"
      },
      {
        "astId": 2962,
        "contract": "contracts/NFTMarketplace.sol:NFTMarketplace",
        "label": "listPrice",
        "offset": 0,
        "slot": "10",
        "type": "t_uint256"
      },
      {
        "astId": 2990,
        "contract": "contracts/NFTMarketplace.sol:NFTMarketplace",
        "label": "idToListedToken",
        "offset": 0,
        "slot": "11",
        "type": "t_mapping(t_uint256,t_struct(ListedToken)2973_storage)"
      }
    ],
    "types": {
      "t_address": {
        "encoding": "inplace",
        "label": "address",
        "numberOfBytes": "20"
      },
      "t_address_payable": {
        "encoding": "inplace",
        "label": "address payable",
        "numberOfBytes": "20"
      },
      "t_bool": {
        "encoding": "inplace",
        "label": "bool",
        "numberOfBytes": "1"
      },
      "t_mapping(t_address,t_bool)": {
        "encoding": "mapping",
        "key": "t_address",
        "label": "mapping(address => bool)",
        "numberOfBytes": "32",
        "value": "t_bool"
      },
      "t_mapping(t_address,t_mapping(t_address,t_bool))": {
        "encoding": "mapping",
        "key": "t_address",
        "label": "mapping(address => mapping(address => bool))",
        "numberOfBytes": "32",
        "value": "t_mapping(t_address,t_bool)"
      },
      "t_mapping(t_address,t_uint256)": {
        "encoding": "mapping",
        "key": "t_address",
        "label": "mapping(address => uint256)",
        "numberOfBytes": "32",
        "value": "t_uint256"
      },
      "t_mapping(t_uint256,t_address)": {
        "encoding": "mapping",
        "key": "t_uint256",
        "label": "mapping(uint256 => address)",
        "numberOfBytes": "32",
        "value": "t_address"
      },
      "t_mapping(t_uint256,t_string_storage)": {
        "encoding": "mapping",
        "key": "t_uint256",
        "label": "mapping(uint256 => string)",
        "numberOfBytes": "32",
        "value": "t_string_storage"
      },
      "t_mapping(t_uint256,t_struct(ListedToken)2973_storage)": {
        "encoding": "mapping",
        "key": "t_uint256",
        "label": "mapping(uint256 => struct NFTMarketplace.ListedToken)",
        "numberOfBytes": "32",
        "value": "t_struct(ListedToken)2973_storage"
      },
      "t_string_storage": {
        "encoding": "bytes",
        "label": "string",
        "numberOfBytes": "32"
      },
      "t_struct(ListedToken)2973_storage": {
        "encoding": "inplace",
        "label": "struct NFTMarketplace.ListedToken",
        "members": [
          {
            "astId": 2964,
            "contract": "contracts/NFTMarketplace.sol:NFTMarketplace",
            "label": "tokenId",
            "offset": 0,
            "slot": "0",
            "type": "t_uint256"
          },
          {
            "astId": 2966,
            "contract": "contracts/NFTMarketplace.sol:NFTMarketplace",
            "label": "owner",
            "offset": 0,
            "slot": "1",
            "type": "t_address_payable"
          },
          {
            "astId": 2968,
            "contract": "contracts/NFTMarketplace.sol:NFTMarketplace",
            "label": "seller",
            "offset": 0,
            "slot": "2",
            "type": "t_address_payable"
          },
          {
            "astId": 2970,
            "contract": "contracts/NFTMarketplace.sol:NFTMarketplace",
            "label": "price",
            "offset": 0,
            "slot": "3",
            "type": "t_uint256"
          },
          {
            "astId": 2972,
            "contract": "contracts/NFTMarketplace.sol:NFTMarketplace",
            "label": "currentlyListed",
            "offset": 0,
            "slot": "4",
            "type": "t_bool"
          }
        ],
        "numberOfBytes": "160"
      },
      "t_uint256": {
        "encoding": "inplace",
        "label": "uint256",
        "numberOfBytes": "32"
      }
    }
  }
}